{
  "abi": [
    {
      "inputs": [
        {
          "internalType": "string",
          "name": "_collectionName",
          "type": "string"
        },
        {
          "internalType": "string",
          "name": "_collectionSymbol",
          "type": "string"
        },
        {
          "internalType": "string",
          "name": "_tokenName",
          "type": "string"
        },
        {
          "internalType": "string",
          "name": "_tokenDescription",
          "type": "string"
        },
        {
          "internalType": "string",
          "name": "_tokenImage",
          "type": "string"
        },
        {
          "internalType": "address",
          "name": "_recipient",
          "type": "address"
        }
      ],
      "name": "mint",
      "outputs": [],
      "stateMutability": "nonpayable",
      "type": "function"
    }
  ],
  "bytecode": {
    "object": "0x608060405234801561001057600080fd5b5061203d806100206000396000f3fe60806040523480156200001157600080fd5b50600436106200002e5760003560e01c80632c3c09051462000033575b600080fd5b6200004a620000443660046200016e565b6200004c565b005b858585858585604051620000609062000098565b6200007196959493929190620002a9565b604051809103906000f0801580156200008e573d6000803e3d6000fd5b5050505050505050565b611cd7806200033183390190565b634e487b7160e01b600052604160045260246000fd5b600082601f830112620000ce57600080fd5b813567ffffffffffffffff80821115620000ec57620000ec620000a6565b604051601f8301601f19908116603f01168101908282118183101715620001175762000117620000a6565b816040528381528660208588010111156200013157600080fd5b836020870160208301376000602085830101528094505050505092915050565b80356001600160a01b03811681146200016957600080fd5b919050565b60008060008060008060c087890312156200018857600080fd5b863567ffffffffffffffff80821115620001a157600080fd5b620001af8a838b01620000bc565b97506020890135915080821115620001c657600080fd5b620001d48a838b01620000bc565b96506040890135915080821115620001eb57600080fd5b620001f98a838b01620000bc565b955060608901359150808211156200021057600080fd5b6200021e8a838b01620000bc565b945060808901359150808211156200023557600080fd5b506200024489828a01620000bc565b9250506200025560a0880162000151565b90509295509295509295565b6000815180845260005b8181101562000289576020818501810151868301820152016200026b565b506000602082860101526020601f19601f83011685010191505092915050565b60c081526000620002be60c083018962000261565b8281036020840152620002d2818962000261565b90508281036040840152620002e8818862000261565b90508281036060840152620002fe818762000261565b9050828103608084015262000314818662000261565b91505060018060a01b03831660a083015297965050505050505056fe60806040523480156200001157600080fd5b5060405162001cd738038062001cd78339810160408190526200003491620003b1565b8585600062000044838262000531565b50600162000053828262000531565b505050620000706200006a620000c160201b60201c565b620000c5565b60076200007e858262000531565b5060086200008d848262000531565b5060096200009c838262000531565b50620000aa81600062000117565b620000b581620000c5565b50505050505062000625565b3390565b600680546001600160a01b038381166001600160a01b0319831681179093556040519116919082907f8be0079c531659141344cd1fd0a4f28419497f9722a3daafe3b4186f6b6457e090600090a35050565b6001600160a01b038216620001735760405162461bcd60e51b815260206004820181905260248201527f4552433732313a206d696e7420746f20746865207a65726f206164647265737360448201526064015b60405180910390fd5b6000818152600260205260409020546001600160a01b031615620001da5760405162461bcd60e51b815260206004820152601c60248201527f4552433732313a20746f6b656e20616c7265616479206d696e7465640000000060448201526064016200016a565b6000818152600260205260409020546001600160a01b031615620002415760405162461bcd60e51b815260206004820152601c60248201527f4552433732313a20746f6b656e20616c7265616479206d696e7465640000000060448201526064016200016a565b6001600160a01b03821660009081526003602052604081208054600192906200026c908490620005fd565b909155505060008181526002602052604080822080546001600160a01b0319166001600160a01b03861690811790915590518392907fddf252ad1be2c89b69c2b068fc378daa952ba7f163c4a11628f55a4df523b3ef908290a45050565b505050565b634e487b7160e01b600052604160045260246000fd5b600082601f830112620002f757600080fd5b81516001600160401b0380821115620003145762000314620002cf565b604051601f8301601f19908116603f011681019082821181831017156200033f576200033f620002cf565b816040528381526020925086838588010111156200035c57600080fd5b600091505b8382101562000380578582018301518183018401529082019062000361565b600093810190920192909252949350505050565b80516001600160a01b0381168114620003ac57600080fd5b919050565b60008060008060008060c08789031215620003cb57600080fd5b86516001600160401b0380821115620003e357600080fd5b620003f18a838b01620002e5565b975060208901519150808211156200040857600080fd5b620004168a838b01620002e5565b965060408901519150808211156200042d57600080fd5b6200043b8a838b01620002e5565b955060608901519150808211156200045257600080fd5b620004608a838b01620002e5565b945060808901519150808211156200047757600080fd5b506200048689828a01620002e5565b9250506200049760a0880162000394565b90509295509295509295565b600181811c90821680620004b857607f821691505b602082108103620004d957634e487b7160e01b600052602260045260246000fd5b50919050565b601f821115620002ca57600081815260208120601f850160051c81016020861015620005085750805b601f850160051c820191505b81811015620005295782815560010162000514565b505050505050565b81516001600160401b038111156200054d576200054d620002cf565b62000565816200055e8454620004a3565b84620004df565b602080601f8311600181146200059d5760008415620005845750858301515b600019600386901b1c1916600185901b17855562000529565b600085815260208120601f198616915b82811015620005ce57888601518255948401946001909101908401620005ad565b5085821015620005ed5787850151600019600388901b60f8161c191681555b5050505050600190811b01905550565b808201808211156200061f57634e487b7160e01b600052601160045260246000fd5b92915050565b6116a280620006356000396000f3fe608060405234801561001057600080fd5b50600436106101375760003560e01c80636c02a931116100b8578063a22cb4651161007c578063a22cb46514610254578063b88d4fde14610267578063c1aef4f21461027a578063c87b56dd14610282578063e985e9c514610295578063f2fde38b146102a857600080fd5b80636c02a9311461021857806370a0823114610220578063715018a6146102335780638da5cb5b1461023b57806395d89b411461024c57600080fd5b806323b872dd116100ff57806323b872dd146101cf57806325e6f516146101e257806342842e0e146101ea57806344df8e70146101fd5780636352211e1461020557600080fd5b806301ffc9a71461013c57806306fdde0314610164578063081812fc14610179578063095ea7b3146101a457806317d70f7c146101b9575b600080fd5b61014f61014a36600461103e565b6102bb565b60405190151581526020015b60405180910390f35b61016c61030d565b60405161015b91906110b2565b61018c6101873660046110c5565b61039f565b6040516001600160a01b03909116815260200161015b565b6101b76101b23660046110fa565b6103c6565b005b6101c1600081565b60405190815260200161015b565b6101b76101dd366004611124565b6104e0565b61016c610511565b6101b76101f8366004611124565b61059f565b6101b76105ba565b61018c6102133660046110c5565b6105cf565b61016c61062f565b6101c161022e366004611160565b61063c565b6101b76106c2565b6006546001600160a01b031661018c565b61016c610726565b6101b761026236600461117b565b610735565b6101b76102753660046111cd565b610744565b61016c61077c565b61016c6102903660046110c5565b610789565b61014f6102a33660046112a9565b61082e565b6101b76102b6366004611160565b61085c565b60006001600160e01b031982166380ac58cd60e01b14806102ec57506001600160e01b03198216635b5e139f60e01b145b8061030757506301ffc9a760e01b6001600160e01b03198316145b92915050565b60606000805461031c906112dc565b80601f0160208091040260200160405190810160405280929190818152602001828054610348906112dc565b80156103955780601f1061036a57610100808354040283529160200191610395565b820191906000526020600020905b81548152906001019060200180831161037857829003601f168201915b5050505050905090565b60006103aa82610873565b506000908152600460205260409020546001600160a01b031690565b60006103d1826105cf565b9050806001600160a01b0316836001600160a01b0316036104435760405162461bcd60e51b815260206004820152602160248201527f4552433732313a20617070726f76616c20746f2063757272656e74206f776e656044820152603960f91b60648201526084015b60405180910390fd5b336001600160a01b038216148061045f575061045f813361082e565b6104d15760405162461bcd60e51b815260206004820152603d60248201527f4552433732313a20617070726f76652063616c6c6572206973206e6f7420746f60448201527f6b656e206f776e6572206f7220617070726f76656420666f7220616c6c000000606482015260840161043a565b6104db83836108d2565b505050565b6104ea3382610940565b6105065760405162461bcd60e51b815260040161043a90611316565b6104db83838361099f565b6008805461051e906112dc565b80601f016020809104026020016040519081016040528092919081815260200182805461054a906112dc565b80156105975780601f1061056c57610100808354040283529160200191610597565b820191906000526020600020905b81548152906001019060200180831161057a57829003601f168201915b505050505081565b6104db83838360405180602001604052806000815250610744565b6105c26109b3565b6105cc6000610a0f565b33ff5b6000818152600260205260408120546001600160a01b0316806103075760405162461bcd60e51b8152602060048201526018602482015277115490cdcc8c4e881a5b9d985b1a59081d1bdad95b88125160421b604482015260640161043a565b6007805461051e906112dc565b60006001600160a01b0382166106a65760405162461bcd60e51b815260206004820152602960248201527f4552433732313a2061646472657373207a65726f206973206e6f7420612076616044820152683634b21037bbb732b960b91b606482015260840161043a565b506001600160a01b031660009081526003602052604090205490565b6106ca6109b3565b60405162461bcd60e51b815260206004820152602b60248201527f4172626974726172794e46543a20796f752063616e6e6f742072656e6f756e6360448201526a065206f776e6572736869760ac1b606482015260840161043a565b60606001805461031c906112dc565b610740338383610ac7565b5050565b61074e3383610940565b61076a5760405162461bcd60e51b815260040161043a90611316565b61077684848484610b95565b50505050565b6009805461051e906112dc565b606081156107d95760405162461bcd60e51b815260206004820152601e60248201527f4172626974726172794e46543a20696e76616c696420746f6b656e2049440000604482015260640161043a565b6108086007600860096040516020016107f493929190611400565b604051602081830303815290604052610bc8565b6040516020016108189190611479565b6040516020818303038152906040529050919050565b6001600160a01b03918216600090815260056020908152604080832093909416825291909152205460ff1690565b6108646109b3565b6108703382600061099f565b50565b6000818152600260205260409020546001600160a01b03166108705760405162461bcd60e51b8152602060048201526018602482015277115490cdcc8c4e881a5b9d985b1a59081d1bdad95b88125160421b604482015260640161043a565b600081815260046020526040902080546001600160a01b0319166001600160a01b0384169081179091558190610907826105cf565b6001600160a01b03167f8c5be1e5ebec7d5bd14f71427d1e84f3dd0314c0f7b2291e5b200ac8c7c3b92560405160405180910390a45050565b60008061094c836105cf565b9050806001600160a01b0316846001600160a01b031614806109735750610973818561082e565b806109975750836001600160a01b031661098c8461039f565b6001600160a01b0316145b949350505050565b6109aa838383610d2f565b6104db82610ed5565b6006546001600160a01b03163314610a0d5760405162461bcd60e51b815260206004820181905260248201527f4f776e61626c653a2063616c6c6572206973206e6f7420746865206f776e6572604482015260640161043a565b565b6000610a1a826105cf565b9050610a25826105cf565b600083815260046020908152604080832080546001600160a01b03191690556001600160a01b0384168352600390915281208054929350600192909190610a6d9084906114d4565b909155505060008281526002602052604080822080546001600160a01b0319169055518391906001600160a01b038416907fddf252ad1be2c89b69c2b068fc378daa952ba7f163c4a11628f55a4df523b3ef908390a45050565b816001600160a01b0316836001600160a01b031603610b285760405162461bcd60e51b815260206004820152601960248201527f4552433732313a20617070726f766520746f2063616c6c657200000000000000604482015260640161043a565b6001600160a01b03838116600081815260056020908152604080832094871680845294825291829020805460ff191686151590811790915591519182527f17307eab39ab6107e8899845ad3d59bd9653f200f220920489ca2b5937696c31910160405180910390a3505050565b610ba084848461099f565b610bac84848484610f27565b6107765760405162461bcd60e51b815260040161043a906114e7565b60608151600003610be757505060408051602081019091526000815290565b600060405180606001604052806040815260200161162d6040913990506000600384516002610c169190611539565b610c20919061154c565b610c2b90600461156e565b90506000610c3a826020611539565b67ffffffffffffffff811115610c5257610c526111b7565b6040519080825280601f01601f191660200182016040528015610c7c576020820181803683370190505b509050818152600183018586518101602084015b81831015610cea5760039283018051603f601282901c811687015160f890811b8552600c83901c8216880151811b6001860152600683901c8216880151811b60028601529116860151901b93820193909352600401610c90565b600389510660018114610d045760028114610d1557610d21565b613d3d60f01b600119830152610d21565b603d60f81b6000198301525b509398975050505050505050565b826001600160a01b0316610d42826105cf565b6001600160a01b031614610d685760405162461bcd60e51b815260040161043a9061158d565b6001600160a01b038216610dca5760405162461bcd60e51b8152602060048201526024808201527f4552433732313a207472616e7366657220746f20746865207a65726f206164646044820152637265737360e01b606482015260840161043a565b826001600160a01b0316610ddd826105cf565b6001600160a01b031614610e035760405162461bcd60e51b815260040161043a9061158d565b600081815260046020908152604080832080546001600160a01b03191690556001600160a01b038616835260039091528120805460019290610e469084906114d4565b90915550506001600160a01b0382166000908152600360205260408120805460019290610e74908490611539565b909155505060008181526002602052604080822080546001600160a01b0319166001600160a01b0386811691821790925591518493918716917fddf252ad1be2c89b69c2b068fc378daa952ba7f163c4a11628f55a4df523b3ef91a4505050565b600680546001600160a01b038381166001600160a01b0319831681179093556040519116919082907f8be0079c531659141344cd1fd0a4f28419497f9722a3daafe3b4186f6b6457e090600090a35050565b60006001600160a01b0384163b1561101d57604051630a85bd0160e11b81526001600160a01b0385169063150b7a0290610f6b9033908990889088906004016115d2565b6020604051808303816000875af1925050508015610fa6575060408051601f3d908101601f19168201909252610fa39181019061160f565b60015b611003573d808015610fd4576040519150601f19603f3d011682016040523d82523d6000602084013e610fd9565b606091505b508051600003610ffb5760405162461bcd60e51b815260040161043a906114e7565b805181602001fd5b6001600160e01b031916630a85bd0160e11b149050610997565b506001949350505050565b6001600160e01b03198116811461087057600080fd5b60006020828403121561105057600080fd5b813561105b81611028565b9392505050565b60005b8381101561107d578181015183820152602001611065565b50506000910152565b6000815180845261109e816020860160208601611062565b601f01601f19169290920160200192915050565b60208152600061105b6020830184611086565b6000602082840312156110d757600080fd5b5035919050565b80356001600160a01b03811681146110f557600080fd5b919050565b6000806040838503121561110d57600080fd5b611116836110de565b946020939093013593505050565b60008060006060848603121561113957600080fd5b611142846110de565b9250611150602085016110de565b9150604084013590509250925092565b60006020828403121561117257600080fd5b61105b826110de565b6000806040838503121561118e57600080fd5b611197836110de565b9150602083013580151581146111ac57600080fd5b809150509250929050565b634e487b7160e01b600052604160045260246000fd5b600080600080608085870312156111e357600080fd5b6111ec856110de565b93506111fa602086016110de565b925060408501359150606085013567ffffffffffffffff8082111561121e57600080fd5b818701915087601f83011261123257600080fd5b813581811115611244576112446111b7565b604051601f8201601f19908116603f0116810190838211818310171561126c5761126c6111b7565b816040528281528a602084870101111561128557600080fd5b82602086016020830137600060208483010152809550505050505092959194509250565b600080604083850312156112bc57600080fd5b6112c5836110de565b91506112d3602084016110de565b90509250929050565b600181811c908216806112f057607f821691505b60208210810361131057634e487b7160e01b600052602260045260246000fd5b50919050565b6020808252602d908201527f4552433732313a2063616c6c6572206973206e6f7420746f6b656e206f776e6560408201526c1c881bdc88185c1c1c9bdd9959609a1b606082015260800190565b8054600090600181811c908083168061137d57607f831692505b6020808410820361139e57634e487b7160e01b600052602260045260246000fd5b8180156113b257600181146113c7576113f4565b60ff19861689528415158502890196506113f4565b60008881526020902060005b868110156113ec5781548b8201529085019083016113d3565b505084890196505b50505050505092915050565b683d913730b6b2911d1160b91b8152600061141e6009830186611363565b71111610113232b9b1b934b83a34b7b7111d1160711b81526114436012820186611363565b6b1116101134b6b0b3b2911d1160a11b81529050611464600c820185611363565b61227d60f01b81526002019695505050505050565b7f646174613a6170706c69636174696f6e2f6a736f6e3b6261736536342c0000008152600082516114b181601d850160208701611062565b91909101601d0192915050565b634e487b7160e01b600052601160045260246000fd5b81810381811115610307576103076114be565b60208082526032908201527f4552433732313a207472616e7366657220746f206e6f6e20455243373231526560408201527131b2b4bb32b91034b6b83632b6b2b73a32b960711b606082015260800190565b80820180821115610307576103076114be565b60008261156957634e487b7160e01b600052601260045260246000fd5b500490565b6000816000190483118215151615611588576115886114be565b500290565b60208082526025908201527f4552433732313a207472616e736665722066726f6d20696e636f72726563742060408201526437bbb732b960d91b606082015260800190565b6001600160a01b038581168252841660208201526040810183905260806060820181905260009061160590830184611086565b9695505050505050565b60006020828403121561162157600080fd5b815161105b8161102856fe4142434445464748494a4b4c4d4e4f505152535455565758595a6162636465666768696a6b6c6d6e6f707172737475767778797a303132333435363738392b2fa2646970667358221220c50fcf53383bb6ab7e46bced4fdb50a95ddc51890fa917ac697409c51be025ba64736f6c63430008100033a264697066735822122064df6e2288689800b3235243e122bb2721483a563b873613938d8cca159a5cff64736f6c63430008100033",
    "linkReferences": {}
  },
  "methodIdentifiers": {
    "mint(string,string,string,string,string,address)": "2c3c0905"
  },
  "id": 12
}